{
  "contractName": "Admin",
  "abi": [
    {
      "constant": true,
      "inputs": [
        {
          "name": "",
          "type": "uint256"
        }
      ],
      "name": "dispersalAddress",
      "outputs": [
        {
          "name": "",
          "type": "address"
        }
      ],
      "payable": false,
      "stateMutability": "view",
      "type": "function",
      "signature": "0x083f1e6d"
    },
    {
      "constant": true,
      "inputs": [],
      "name": "tokensPerMin",
      "outputs": [
        {
          "name": "",
          "type": "uint256"
        }
      ],
      "payable": false,
      "stateMutability": "view",
      "type": "function",
      "signature": "0x0bdedafa"
    },
    {
      "constant": true,
      "inputs": [],
      "name": "remTime",
      "outputs": [
        {
          "name": "",
          "type": "uint256"
        }
      ],
      "payable": false,
      "stateMutability": "view",
      "type": "function",
      "signature": "0x21771535"
    },
    {
      "constant": true,
      "inputs": [],
      "name": "lastDispersal",
      "outputs": [
        {
          "name": "",
          "type": "uint256"
        }
      ],
      "payable": false,
      "stateMutability": "view",
      "type": "function",
      "signature": "0x73d657e1"
    },
    {
      "constant": true,
      "inputs": [],
      "name": "addressCount",
      "outputs": [
        {
          "name": "",
          "type": "uint256"
        }
      ],
      "payable": false,
      "stateMutability": "view",
      "type": "function",
      "signature": "0x9d80c818"
    },
    {
      "constant": true,
      "inputs": [],
      "name": "createdAt",
      "outputs": [
        {
          "name": "",
          "type": "uint256"
        }
      ],
      "payable": false,
      "stateMutability": "view",
      "type": "function",
      "signature": "0xcf09e0d0"
    },
    {
      "constant": true,
      "inputs": [],
      "name": "token",
      "outputs": [
        {
          "name": "",
          "type": "address"
        }
      ],
      "payable": false,
      "stateMutability": "view",
      "type": "function",
      "signature": "0xfc0c546a"
    },
    {
      "inputs": [],
      "payable": false,
      "stateMutability": "nonpayable",
      "type": "constructor",
      "signature": "constructor"
    },
    {
      "anonymous": false,
      "inputs": [
        {
          "indexed": false,
          "name": "newAddress",
          "type": "address"
        }
      ],
      "name": "addressAdded",
      "type": "event",
      "signature": "0x0072d7b5a6d066b81369ec908346284f0add888ef544b447dc56a6b58fd59f7f"
    },
    {
      "constant": false,
      "inputs": [
        {
          "name": "_newAddress",
          "type": "address"
        }
      ],
      "name": "addAddress",
      "outputs": [],
      "payable": false,
      "stateMutability": "nonpayable",
      "type": "function",
      "signature": "0x38eada1c"
    },
    {
      "constant": false,
      "inputs": [],
      "name": "dispersal",
      "outputs": [],
      "payable": false,
      "stateMutability": "nonpayable",
      "type": "function",
      "signature": "0xeeef479d"
    },
    {
      "constant": true,
      "inputs": [
        {
          "name": "add",
          "type": "address"
        }
      ],
      "name": "addressBalance",
      "outputs": [
        {
          "name": "",
          "type": "uint256"
        }
      ],
      "payable": false,
      "stateMutability": "view",
      "type": "function",
      "signature": "0x3ec4de35"
    },
    {
      "constant": true,
      "inputs": [],
      "name": "getAllAddress",
      "outputs": [
        {
          "name": "",
          "type": "address[]"
        }
      ],
      "payable": false,
      "stateMutability": "view",
      "type": "function",
      "signature": "0x715b208b"
    },
    {
      "constant": true,
      "inputs": [],
      "name": "getAllAddressBalances",
      "outputs": [
        {
          "name": "",
          "type": "uint256[]"
        }
      ],
      "payable": false,
      "stateMutability": "view",
      "type": "function",
      "signature": "0xe755188a"
    }
  ],
  "bytecode": "0x6080604052600060065534801561001557600080fd5b5061001e6102be565b604051809103906000f08015801561003a573d6000803e3d6000fd5b506000806101000a81548173ffffffffffffffffffffffffffffffffffffffff021916908373ffffffffffffffffffffffffffffffffffffffff160217905550426001819055506301e1338042016002819055506000809054906101000a900473ffffffffffffffffffffffffffffffffffffffff1673ffffffffffffffffffffffffffffffffffffffff1663a9059cbb306a52b7d2dcc80cd2e40000006040518363ffffffff167c0100000000000000000000000000000000000000000000000000000000028152600401808373ffffffffffffffffffffffffffffffffffffffff1673ffffffffffffffffffffffffffffffffffffffff16815260200182815260200192505050602060405180830381600087803b15801561015d57600080fd5b505af1158015610171573d6000803e3d6000fd5b505050506040513d602081101561018757600080fd5b810190808051906020019092919050505050603c601861016d6000809054906101000a900473ffffffffffffffffffffffffffffffffffffffff1673ffffffffffffffffffffffffffffffffffffffff166370a08231306040518263ffffffff167c0100000000000000000000000000000000000000000000000000000000028152600401808273ffffffffffffffffffffffffffffffffffffffff1673ffffffffffffffffffffffffffffffffffffffff16815260200191505060206040518083038186803b15801561025a57600080fd5b505afa15801561026e573d6000803e3d6000fd5b505050506040513d602081101561028457600080fd5b810190808051906020019092919050505081151561029e57fe5b048115156102a857fe5b048115156102b257fe5b046004819055506102ce565b60405161167380610db583390190565b610ad8806102dd6000396000f3fe6080604052600436106100ba576000357c0100000000000000000000000000000000000000000000000000000000900463ffffffff168063083f1e6d146100bf5780630bdedafa1461013a578063217715351461016557806338eada1c146101905780633ec4de35146101e1578063715b208b1461024657806373d657e1146102b25780639d80c818146102dd578063cf09e0d014610308578063e755188a14610333578063eeef479d1461039f578063fc0c546a146103b6575b600080fd5b3480156100cb57600080fd5b506100f8600480360360208110156100e257600080fd5b810190808035906020019092919050505061040d565b604051808273ffffffffffffffffffffffffffffffffffffffff1673ffffffffffffffffffffffffffffffffffffffff16815260200191505060405180910390f35b34801561014657600080fd5b5061014f61044b565b6040518082815260200191505060405180910390f35b34801561017157600080fd5b5061017a610451565b6040518082815260200191505060405180910390f35b34801561019c57600080fd5b506101df600480360360208110156101b357600080fd5b81019080803573ffffffffffffffffffffffffffffffffffffffff169060200190929190505050610457565b005b3480156101ed57600080fd5b506102306004803603602081101561020457600080fd5b81019080803573ffffffffffffffffffffffffffffffffffffffff1690602001909291905050506105b6565b6040518082815260200191505060405180910390f35b34801561025257600080fd5b5061025b6106b4565b6040518080602001828103825283818151815260200191508051906020019060200280838360005b8381101561029e578082015181840152602081019050610283565b505050509050019250505060405180910390f35b3480156102be57600080fd5b506102c7610794565b6040518082815260200191505060405180910390f35b3480156102e957600080fd5b506102f261079a565b6040518082815260200191505060405180910390f35b34801561031457600080fd5b5061031d6107a0565b6040518082815260200191505060405180910390f35b34801561033f57600080fd5b506103486107a6565b6040518080602001828103825283818151815260200191508051906020019060200280838360005b8381101561038b578082015181840152602081019050610370565b505050509050019250505060405180910390f35b3480156103ab57600080fd5b506103b4610860565b005b3480156103c257600080fd5b506103cb610a87565b604051808273ffffffffffffffffffffffffffffffffffffffff1673ffffffffffffffffffffffffffffffffffffffff16815260200191505060405180910390f35b60058181548110151561041c57fe5b906000526020600020016000915054906101000a900473ffffffffffffffffffffffffffffffffffffffff1681565b60045481565b60025481565b600a6006541015156104d1576040517f08c379a00000000000000000000000000000000000000000000000000000000081526004018080602001828103825260208152602001807f4d61782064697370657273616c2061646472657373657320726561636865642e81525060200191505060405180910390fd5b60058190806001815401808255809150509060018203906000526020600020016000909192909190916101000a81548173ffffffffffffffffffffffffffffffffffffffff021916908373ffffffffffffffffffffffffffffffffffffffff16021790555050600660008154809291906001019190505550610551610860565b7e72d7b5a6d066b81369ec908346284f0add888ef544b447dc56a6b58fd59f7f81604051808273ffffffffffffffffffffffffffffffffffffffff1673ffffffffffffffffffffffffffffffffffffffff16815260200191505060405180910390a150565b60008060009054906101000a900473ffffffffffffffffffffffffffffffffffffffff1673ffffffffffffffffffffffffffffffffffffffff166370a08231836040518263ffffffff167c0100000000000000000000000000000000000000000000000000000000028152600401808273ffffffffffffffffffffffffffffffffffffffff1673ffffffffffffffffffffffffffffffffffffffff16815260200191505060206040518083038186803b15801561067257600080fd5b505afa158015610686573d6000803e3d6000fd5b505050506040513d602081101561069c57600080fd5b81019080805190602001909291905050509050919050565b6060806006546040519080825280602002602001820160405280156106e85781602001602082028038833980820191505090505b50905060008090505b60065481101561078c5760058181548110151561070a57fe5b9060005260206000200160009054906101000a900473ffffffffffffffffffffffffffffffffffffffff16828281518110151561074357fe5b9060200190602002019073ffffffffffffffffffffffffffffffffffffffff16908173ffffffffffffffffffffffffffffffffffffffff168152505080806001019150506106f1565b508091505090565b60035481565b60065481565b60015481565b6060806006546040519080825280602002602001820160405280156107da5781602001602082028038833980820191505090505b50905060008090505b6006548110156108585761082f6005828154811015156107ff57fe5b9060005260206000200160009054906101000a900473ffffffffffffffffffffffffffffffffffffffff166105b6565b828281518110151561083d57fe5b906020019060200201818152505080806001019150506107e3565b508091505090565b60006006541115156108da576040517f08c379a00000000000000000000000000000000000000000000000000000000081526004018080602001828103825260108152602001807f4e6f20616464726573732061646465640000000000000000000000000000000081525060200191505060405180910390fd5b60008090506000600354141561090257603c60015442038115156108fa57fe5b049050610916565b603c600354420381151561091257fe5b0490505b60008160065460045481151561092857fe5b0402905060008090505b600654811015610a82576000809054906101000a900473ffffffffffffffffffffffffffffffffffffffff1673ffffffffffffffffffffffffffffffffffffffff1663a9059cbb60058381548110151561098857fe5b9060005260206000200160009054906101000a900473ffffffffffffffffffffffffffffffffffffffff16846040518363ffffffff167c0100000000000000000000000000000000000000000000000000000000028152600401808373ffffffffffffffffffffffffffffffffffffffff1673ffffffffffffffffffffffffffffffffffffffff16815260200182815260200192505050602060405180830381600087803b158015610a3957600080fd5b505af1158015610a4d573d6000803e3d6000fd5b505050506040513d6020811015610a6357600080fd5b8101908080519060200190929190505050508080600101915050610932565b505050565b6000809054906101000a900473ffffffffffffffffffffffffffffffffffffffff168156fea165627a7a7230582031cd82d3a6d9932d14dc7d53251dbda5c07f430876c4f943af630179e9c42406002960806040523480156200001157600080fd5b506040805190810160405280600981526020017f58595a20546f6b656e00000000000000000000000000000000000000000000008152506040805190810160405280600381526020017f58595a0000000000000000000000000000000000000000000000000000000000815250601282600390805190602001906200009892919062000365565b508160049080519060200190620000b192919062000365565b5080600560006101000a81548160ff021916908360ff160217905550505050620000f6336a52b7d2dcc80cd2e4000000620000fc640100000000026401000000009004565b62000414565b600073ffffffffffffffffffffffffffffffffffffffff168273ffffffffffffffffffffffffffffffffffffffff1614151515620001a2576040517f08c379a000000000000000000000000000000000000000000000000000000000815260040180806020018281038252601f8152602001807f45524332303a206d696e7420746f20746865207a65726f20616464726573730081525060200191505060405180910390fd5b620001c781600254620002da6401000000000262001199179091906401000000009004565b6002819055506200022e816000808573ffffffffffffffffffffffffffffffffffffffff1673ffffffffffffffffffffffffffffffffffffffff16815260200190815260200160002054620002da6401000000000262001199179091906401000000009004565b6000808473ffffffffffffffffffffffffffffffffffffffff1673ffffffffffffffffffffffffffffffffffffffff168152602001908152602001600020819055508173ffffffffffffffffffffffffffffffffffffffff16600073ffffffffffffffffffffffffffffffffffffffff167fddf252ad1be2c89b69c2b068fc378daa952ba7f163c4a11628f55a4df523b3ef836040518082815260200191505060405180910390a35050565b60008082840190508381101515156200035b576040517f08c379a000000000000000000000000000000000000000000000000000000000815260040180806020018281038252601b8152602001807f536166654d6174683a206164646974696f6e206f766572666c6f77000000000081525060200191505060405180910390fd5b8091505092915050565b828054600181600116156101000203166002900490600052602060002090601f016020900481019282601f10620003a857805160ff1916838001178555620003d9565b82800160010185558215620003d9579182015b82811115620003d8578251825591602001919060010190620003bb565b5b509050620003e89190620003ec565b5090565b6200041191905b808211156200040d576000816000905550600101620003f3565b5090565b90565b61124f80620004246000396000f3fe6080604052600436106100af576000357c0100000000000000000000000000000000000000000000000000000000900463ffffffff16806306fdde03146100b4578063095ea7b31461014457806318160ddd146101b757806323b872dd146101e2578063313ce5671461027557806339509351146102a657806370a082311461031957806395d89b411461037e578063a457c2d71461040e578063a9059cbb14610481578063dd62ed3e146104f4575b600080fd5b3480156100c057600080fd5b506100c9610579565b6040518080602001828103825283818151815260200191508051906020019080838360005b838110156101095780820151818401526020810190506100ee565b50505050905090810190601f1680156101365780820380516001836020036101000a031916815260200191505b509250505060405180910390f35b34801561015057600080fd5b5061019d6004803603604081101561016757600080fd5b81019080803573ffffffffffffffffffffffffffffffffffffffff1690602001909291908035906020019092919050505061061b565b604051808215151515815260200191505060405180910390f35b3480156101c357600080fd5b506101cc610639565b6040518082815260200191505060405180910390f35b3480156101ee57600080fd5b5061025b6004803603606081101561020557600080fd5b81019080803573ffffffffffffffffffffffffffffffffffffffff169060200190929190803573ffffffffffffffffffffffffffffffffffffffff16906020019092919080359060200190929190505050610643565b604051808215151515815260200191505060405180910390f35b34801561028157600080fd5b5061028a610760565b604051808260ff1660ff16815260200191505060405180910390f35b3480156102b257600080fd5b506102ff600480360360408110156102c957600080fd5b81019080803573ffffffffffffffffffffffffffffffffffffffff16906020019092919080359060200190929190505050610777565b604051808215151515815260200191505060405180910390f35b34801561032557600080fd5b506103686004803603602081101561033c57600080fd5b81019080803573ffffffffffffffffffffffffffffffffffffffff16906020019092919050505061082a565b6040518082815260200191505060405180910390f35b34801561038a57600080fd5b50610393610872565b6040518080602001828103825283818151815260200191508051906020019080838360005b838110156103d35780820151818401526020810190506103b8565b50505050905090810190601f1680156104005780820380516001836020036101000a031916815260200191505b509250505060405180910390f35b34801561041a57600080fd5b506104676004803603604081101561043157600080fd5b81019080803573ffffffffffffffffffffffffffffffffffffffff16906020019092919080359060200190929190505050610914565b604051808215151515815260200191505060405180910390f35b34801561048d57600080fd5b506104da600480360360408110156104a457600080fd5b81019080803573ffffffffffffffffffffffffffffffffffffffff16906020019092919080359060200190929190505050610a25565b604051808215151515815260200191505060405180910390f35b34801561050057600080fd5b506105636004803603604081101561051757600080fd5b81019080803573ffffffffffffffffffffffffffffffffffffffff169060200190929190803573ffffffffffffffffffffffffffffffffffffffff169060200190929190505050610a43565b6040518082815260200191505060405180910390f35b606060038054600181600116156101000203166002900480601f0160208091040260200160405190810160405280929190818152602001828054600181600116156101000203166002900480156106115780601f106105e657610100808354040283529160200191610611565b820191906000526020600020905b8154815290600101906020018083116105f457829003601f168201915b5050505050905090565b600061062f610628610aca565b8484610ad2565b6001905092915050565b6000600254905090565b6000610650848484610d53565b6107558461065c610aca565b61075085606060405190810160405280602881526020017f45524332303a207472616e7366657220616d6f756e742065786365656473206181526020017f6c6c6f77616e6365000000000000000000000000000000000000000000000000815250600160008b73ffffffffffffffffffffffffffffffffffffffff1673ffffffffffffffffffffffffffffffffffffffff1681526020019081526020016000206000610706610aca565b73ffffffffffffffffffffffffffffffffffffffff1673ffffffffffffffffffffffffffffffffffffffff168152602001908152602001600020546110d79092919063ffffffff16565b610ad2565b600190509392505050565b6000600560009054906101000a900460ff16905090565b6000610820610784610aca565b8461081b8560016000610795610aca565b73ffffffffffffffffffffffffffffffffffffffff1673ffffffffffffffffffffffffffffffffffffffff16815260200190815260200160002060008973ffffffffffffffffffffffffffffffffffffffff1673ffffffffffffffffffffffffffffffffffffffff1681526020019081526020016000205461119990919063ffffffff16565b610ad2565b6001905092915050565b60008060008373ffffffffffffffffffffffffffffffffffffffff1673ffffffffffffffffffffffffffffffffffffffff168152602001908152602001600020549050919050565b606060048054600181600116156101000203166002900480601f01602080910402602001604051908101604052809291908181526020018280546001816001161561010002031660029004801561090a5780601f106108df5761010080835404028352916020019161090a565b820191906000526020600020905b8154815290600101906020018083116108ed57829003601f168201915b5050505050905090565b6000610a1b610921610aca565b84610a1685606060405190810160405280602581526020017f45524332303a2064656372656173656420616c6c6f77616e63652062656c6f7781526020017f207a65726f0000000000000000000000000000000000000000000000000000008152506001600061098f610aca565b73ffffffffffffffffffffffffffffffffffffffff1673ffffffffffffffffffffffffffffffffffffffff16815260200190815260200160002060008a73ffffffffffffffffffffffffffffffffffffffff1673ffffffffffffffffffffffffffffffffffffffff168152602001908152602001600020546110d79092919063ffffffff16565b610ad2565b6001905092915050565b6000610a39610a32610aca565b8484610d53565b6001905092915050565b6000600160008473ffffffffffffffffffffffffffffffffffffffff1673ffffffffffffffffffffffffffffffffffffffff16815260200190815260200160002060008373ffffffffffffffffffffffffffffffffffffffff1673ffffffffffffffffffffffffffffffffffffffff16815260200190815260200160002054905092915050565b600033905090565b600073ffffffffffffffffffffffffffffffffffffffff168373ffffffffffffffffffffffffffffffffffffffff1614151515610b9d576040517f08c379a00000000000000000000000000000000000000000000000000000000081526004018080602001828103825260248152602001807f45524332303a20617070726f76652066726f6d20746865207a65726f2061646481526020017f726573730000000000000000000000000000000000000000000000000000000081525060400191505060405180910390fd5b600073ffffffffffffffffffffffffffffffffffffffff168273ffffffffffffffffffffffffffffffffffffffff1614151515610c68576040517f08c379a00000000000000000000000000000000000000000000000000000000081526004018080602001828103825260228152602001807f45524332303a20617070726f766520746f20746865207a65726f20616464726581526020017f737300000000000000000000000000000000000000000000000000000000000081525060400191505060405180910390fd5b80600160008573ffffffffffffffffffffffffffffffffffffffff1673ffffffffffffffffffffffffffffffffffffffff16815260200190815260200160002060008473ffffffffffffffffffffffffffffffffffffffff1673ffffffffffffffffffffffffffffffffffffffff168152602001908152602001600020819055508173ffffffffffffffffffffffffffffffffffffffff168373ffffffffffffffffffffffffffffffffffffffff167f8c5be1e5ebec7d5bd14f71427d1e84f3dd0314c0f7b2291e5b200ac8c7c3b925836040518082815260200191505060405180910390a3505050565b600073ffffffffffffffffffffffffffffffffffffffff168373ffffffffffffffffffffffffffffffffffffffff1614151515610e1e576040517f08c379a00000000000000000000000000000000000000000000000000000000081526004018080602001828103825260258152602001807f45524332303a207472616e736665722066726f6d20746865207a65726f20616481526020017f647265737300000000000000000000000000000000000000000000000000000081525060400191505060405180910390fd5b600073ffffffffffffffffffffffffffffffffffffffff168273ffffffffffffffffffffffffffffffffffffffff1614151515610ee9576040517f08c379a00000000000000000000000000000000000000000000000000000000081526004018080602001828103825260238152602001807f45524332303a207472616e7366657220746f20746865207a65726f206164647281526020017f657373000000000000000000000000000000000000000000000000000000000081525060400191505060405180910390fd5b610f9881606060405190810160405280602681526020017f45524332303a207472616e7366657220616d6f756e742065786365656473206281526020017f616c616e636500000000000000000000000000000000000000000000000000008152506000808773ffffffffffffffffffffffffffffffffffffffff1673ffffffffffffffffffffffffffffffffffffffff168152602001908152602001600020546110d79092919063ffffffff16565b6000808573ffffffffffffffffffffffffffffffffffffffff1673ffffffffffffffffffffffffffffffffffffffff1681526020019081526020016000208190555061102b816000808573ffffffffffffffffffffffffffffffffffffffff1673ffffffffffffffffffffffffffffffffffffffff1681526020019081526020016000205461119990919063ffffffff16565b6000808473ffffffffffffffffffffffffffffffffffffffff1673ffffffffffffffffffffffffffffffffffffffff168152602001908152602001600020819055508173ffffffffffffffffffffffffffffffffffffffff168373ffffffffffffffffffffffffffffffffffffffff167fddf252ad1be2c89b69c2b068fc378daa952ba7f163c4a11628f55a4df523b3ef836040518082815260200191505060405180910390a3505050565b60008383111582901515611186576040517f08c379a00000000000000000000000000000000000000000000000000000000081526004018080602001828103825283818151815260200191508051906020019080838360005b8381101561114b578082015181840152602081019050611130565b50505050905090810190601f1680156111785780820380516001836020036101000a031916815260200191505b509250505060405180910390fd5b5060008385039050809150509392505050565b6000808284019050838110151515611219576040517f08c379a000000000000000000000000000000000000000000000000000000000815260040180806020018281038252601b8152602001807f536166654d6174683a206164646974696f6e206f766572666c6f77000000000081525060200191505060405180910390fd5b809150509291505056fea165627a7a72305820322b7a4b0f434350615e289ba579c2ec66af0aed81b0dee0283aa2f33f5578720029",
  "source": "// SPDX-License-Identifier: MIT\r\npragma solidity >=0.4.22 <0.9.0;\r\n\r\nimport \"./XYZToken.sol\";\r\nimport \"@openzeppelin/contracts/token/ERC20/IERC20.sol\";\r\n\r\ncontract Admin {\r\n    XYZToken public token;\r\n    uint public createdAt;\r\n    uint public remTime;\r\n    uint public lastDispersal ;\r\n    uint public tokensPerMin;\r\n\r\n    constructor() public{\r\n        token = new XYZToken();\r\n        createdAt = now;\r\n        remTime = now + 365 days;\r\n        token.transfer(address(this),100000000000000000000000000);\r\n        tokensPerMin = token.balanceOf(address(this))/365/24/60;\r\n    }\r\n\r\n    address[] public dispersalAddress;\r\n    uint public addressCount = 0;\r\n\r\n    event addressAdded(address newAddress);\r\n\r\n    function addAddress(address _newAddress) external {\r\n        require(addressCount < 10 , \"Max dispersal addresses reached.\");\r\n        dispersalAddress.push(_newAddress);\r\n        addressCount++;\r\n        dispersal();\r\n        emit addressAdded(_newAddress);\r\n    }\r\n\r\n    function dispersal() public {\r\n        require(addressCount > 0,\"No address added\");\r\n        uint mins = 0;\r\n        if(lastDispersal == 0){\r\n            mins = (now - createdAt)/60;\r\n        }else{\r\n            mins = (now - lastDispersal)/60;\r\n        }\r\n\r\n        uint tokensPerAddress = (tokensPerMin / addressCount)*mins;\r\n        for(uint add = 0 ; add < addressCount ; add++){\r\n            token.transfer(dispersalAddress[add],tokensPerAddress);\r\n        }\r\n    }\r\n\r\n    function addressBalance(address add) view public returns(uint) {\r\n        return token.balanceOf(add);\r\n    }\r\n\r\n    function getAllAddress() public view returns(address[] memory){\r\n        address[] memory addressList = new address[](addressCount);\r\n        for(uint i = 0 ;i<addressCount ; i++){\r\n            addressList[i] = dispersalAddress[i];\r\n        }\r\n        return addressList;\r\n    }\r\n\r\n    function getAllAddressBalances() public view returns(uint[] memory){\r\n        uint[] memory balanceList = new uint[](addressCount);\r\n        for(uint i = 0 ;i<addressCount ; i++){\r\n            balanceList[i] = addressBalance(dispersalAddress[i]);\r\n        }\r\n        return balanceList;\r\n    }\r\n}",
  "sourcePath": "C:/Users/ankit/Desktop/block/ui/src/contracts/Admin.sol",
  "compiler": {
    "name": "solc",
    "version": "0.5.0+commit.1d4f565a.Emscripten.clang"
  },
  "schemaVersion": "3.0.2",
  "updatedAt": "2022-04-16T10:01:06.219Z",
  "devdoc": {
    "methods": {}
  },
  "userdoc": {
    "methods": {}
  }
}